{
    "_format": "hh-sol-artifact-1",
    "contractName": "DEXPair",
    "sourceName": "contracts/DEXPair.sol",
    "abi": [
        {
            "inputs": [
                {
                    "internalType": "address",
                    "name": "_token0",
                    "type": "address"
                },
                {
                    "internalType": "address",
                    "name": "_token1",
                    "type": "address"
                }
            ],
            "stateMutability": "nonpayable",
            "type": "constructor"
        },
        {
            "inputs": [
                {
                    "internalType": "address",
                    "name": "spender",
                    "type": "address"
                },
                {
                    "internalType": "uint256",
                    "name": "allowance",
                    "type": "uint256"
                },
                {
                    "internalType": "uint256",
                    "name": "needed",
                    "type": "uint256"
                }
            ],
            "name": "ERC20InsufficientAllowance",
            "type": "error"
        },
        {
            "inputs": [
                {
                    "internalType": "address",
                    "name": "sender",
                    "type": "address"
                },
                {
                    "internalType": "uint256",
                    "name": "balance",
                    "type": "uint256"
                },
                {
                    "internalType": "uint256",
                    "name": "needed",
                    "type": "uint256"
                }
            ],
            "name": "ERC20InsufficientBalance",
            "type": "error"
        },
        {
            "inputs": [
                {
                    "internalType": "address",
                    "name": "approver",
                    "type": "address"
                }
            ],
            "name": "ERC20InvalidApprover",
            "type": "error"
        },
        {
            "inputs": [
                {
                    "internalType": "address",
                    "name": "receiver",
                    "type": "address"
                }
            ],
            "name": "ERC20InvalidReceiver",
            "type": "error"
        },
        {
            "inputs": [
                {
                    "internalType": "address",
                    "name": "sender",
                    "type": "address"
                }
            ],
            "name": "ERC20InvalidSender",
            "type": "error"
        },
        {
            "inputs": [
                {
                    "internalType": "address",
                    "name": "spender",
                    "type": "address"
                }
            ],
            "name": "ERC20InvalidSpender",
            "type": "error"
        },
        {
            "anonymous": false,
            "inputs": [
                {
                    "indexed": true,
                    "internalType": "address",
                    "name": "owner",
                    "type": "address"
                },
                {
                    "indexed": true,
                    "internalType": "address",
                    "name": "spender",
                    "type": "address"
                },
                {
                    "indexed": false,
                    "internalType": "uint256",
                    "name": "value",
                    "type": "uint256"
                }
            ],
            "name": "Approval",
            "type": "event"
        },
        {
            "anonymous": false,
            "inputs": [
                {
                    "indexed": true,
                    "internalType": "address",
                    "name": "sender",
                    "type": "address"
                },
                {
                    "indexed": false,
                    "internalType": "uint256",
                    "name": "amount0In",
                    "type": "uint256"
                },
                {
                    "indexed": false,
                    "internalType": "uint256",
                    "name": "amount1In",
                    "type": "uint256"
                },
                {
                    "indexed": false,
                    "internalType": "uint256",
                    "name": "amount0Out",
                    "type": "uint256"
                },
                {
                    "indexed": false,
                    "internalType": "uint256",
                    "name": "amount1Out",
                    "type": "uint256"
                }
            ],
            "name": "Swap",
            "type": "event"
        },
        {
            "anonymous": false,
            "inputs": [
                {
                    "indexed": false,
                    "internalType": "uint256",
                    "name": "reserve0",
                    "type": "uint256"
                },
                {
                    "indexed": false,
                    "internalType": "uint256",
                    "name": "reserve1",
                    "type": "uint256"
                }
            ],
            "name": "Sync",
            "type": "event"
        },
        {
            "anonymous": false,
            "inputs": [
                {
                    "indexed": true,
                    "internalType": "address",
                    "name": "from",
                    "type": "address"
                },
                {
                    "indexed": true,
                    "internalType": "address",
                    "name": "to",
                    "type": "address"
                },
                {
                    "indexed": false,
                    "internalType": "uint256",
                    "name": "value",
                    "type": "uint256"
                }
            ],
            "name": "Transfer",
            "type": "event"
        },
        {
            "inputs": [],
            "name": "MINIMUM_LIQUIDITY",
            "outputs": [
                {
                    "internalType": "uint256",
                    "name": "",
                    "type": "uint256"
                }
            ],
            "stateMutability": "view",
            "type": "function"
        },
        {
            "inputs": [
                {
                    "internalType": "uint256",
                    "name": "amount0",
                    "type": "uint256"
                },
                {
                    "internalType": "uint256",
                    "name": "amount1",
                    "type": "uint256"
                },
                {
                    "internalType": "address",
                    "name": "to",
                    "type": "address"
                }
            ],
            "name": "addLiquidity",
            "outputs": [
                {
                    "internalType": "uint256",
                    "name": "liquidity",
                    "type": "uint256"
                }
            ],
            "stateMutability": "nonpayable",
            "type": "function"
        },
        {
            "inputs": [
                {
                    "internalType": "address",
                    "name": "owner",
                    "type": "address"
                },
                {
                    "internalType": "address",
                    "name": "spender",
                    "type": "address"
                }
            ],
            "name": "allowance",
            "outputs": [
                {
                    "internalType": "uint256",
                    "name": "",
                    "type": "uint256"
                }
            ],
            "stateMutability": "view",
            "type": "function"
        },
        {
            "inputs": [
                {
                    "internalType": "address",
                    "name": "spender",
                    "type": "address"
                },
                {
                    "internalType": "uint256",
                    "name": "value",
                    "type": "uint256"
                }
            ],
            "name": "approve",
            "outputs": [
                {
                    "internalType": "bool",
                    "name": "",
                    "type": "bool"
                }
            ],
            "stateMutability": "nonpayable",
            "type": "function"
        },
        {
            "inputs": [
                {
                    "internalType": "address",
                    "name": "account",
                    "type": "address"
                }
            ],
            "name": "balanceOf",
            "outputs": [
                {
                    "internalType": "uint256",
                    "name": "",
                    "type": "uint256"
                }
            ],
            "stateMutability": "view",
            "type": "function"
        },
        {
            "inputs": [],
            "name": "decimals",
            "outputs": [
                {
                    "internalType": "uint8",
                    "name": "",
                    "type": "uint8"
                }
            ],
            "stateMutability": "view",
            "type": "function"
        },
        {
            "inputs": [],
            "name": "name",
            "outputs": [
                {
                    "internalType": "string",
                    "name": "",
                    "type": "string"
                }
            ],
            "stateMutability": "view",
            "type": "function"
        },
        {
            "inputs": [
                {
                    "internalType": "uint256",
                    "name": "liquidity",
                    "type": "uint256"
                }
            ],
            "name": "removeLiquidity",
            "outputs": [
                {
                    "internalType": "uint256",
                    "name": "amount0",
                    "type": "uint256"
                },
                {
                    "internalType": "uint256",
                    "name": "amount1",
                    "type": "uint256"
                }
            ],
            "stateMutability": "nonpayable",
            "type": "function"
        },
        {
            "inputs": [],
            "name": "reserve0",
            "outputs": [
                {
                    "internalType": "uint256",
                    "name": "",
                    "type": "uint256"
                }
            ],
            "stateMutability": "view",
            "type": "function"
        },
        {
            "inputs": [],
            "name": "reserve1",
            "outputs": [
                {
                    "internalType": "uint256",
                    "name": "",
                    "type": "uint256"
                }
            ],
            "stateMutability": "view",
            "type": "function"
        },
        {
            "inputs": [
                {
                    "internalType": "uint256",
                    "name": "amount0Out",
                    "type": "uint256"
                },
                {
                    "internalType": "uint256",
                    "name": "amount1Out",
                    "type": "uint256"
                },
                {
                    "internalType": "address",
                    "name": "to",
                    "type": "address"
                }
            ],
            "name": "swap",
            "outputs": [],
            "stateMutability": "nonpayable",
            "type": "function"
        },
        {
            "inputs": [],
            "name": "symbol",
            "outputs": [
                {
                    "internalType": "string",
                    "name": "",
                    "type": "string"
                }
            ],
            "stateMutability": "view",
            "type": "function"
        },
        {
            "inputs": [],
            "name": "token0",
            "outputs": [
                {
                    "internalType": "contract IERC20",
                    "name": "",
                    "type": "address"
                }
            ],
            "stateMutability": "view",
            "type": "function"
        },
        {
            "inputs": [],
            "name": "token1",
            "outputs": [
                {
                    "internalType": "contract IERC20",
                    "name": "",
                    "type": "address"
                }
            ],
            "stateMutability": "view",
            "type": "function"
        },
        {
            "inputs": [],
            "name": "totalSupply",
            "outputs": [
                {
                    "internalType": "uint256",
                    "name": "",
                    "type": "uint256"
                }
            ],
            "stateMutability": "view",
            "type": "function"
        },
        {
            "inputs": [
                {
                    "internalType": "address",
                    "name": "to",
                    "type": "address"
                },
                {
                    "internalType": "uint256",
                    "name": "value",
                    "type": "uint256"
                }
            ],
            "name": "transfer",
            "outputs": [
                {
                    "internalType": "bool",
                    "name": "",
                    "type": "bool"
                }
            ],
            "stateMutability": "nonpayable",
            "type": "function"
        },
        {
            "inputs": [
                {
                    "internalType": "address",
                    "name": "from",
                    "type": "address"
                },
                {
                    "internalType": "address",
                    "name": "to",
                    "type": "address"
                },
                {
                    "internalType": "uint256",
                    "name": "value",
                    "type": "uint256"
                }
            ],
            "name": "transferFrom",
            "outputs": [
                {
                    "internalType": "bool",
                    "name": "",
                    "type": "bool"
                }
            ],
            "stateMutability": "nonpayable",
            "type": "function"
        }
    ],
    "bytecode": "0x60806040523480156200001157600080fd5b50604051620016bc380380620016bc8339810160408190526200003491620000ee565b6040518060400160405280600c81526020016b2222ac102628102a37b5b2b760a11b8152506040518060400160405280600681526020016504445582d4c560d41b8152508160039081620000899190620001cb565b506004620000988282620001cb565b5050600580546001600160a01b039485166001600160a01b03199182161790915560068054939094169216919091179091555062000297565b80516001600160a01b0381168114620000e957600080fd5b919050565b600080604083850312156200010257600080fd5b6200010d83620000d1565b91506200011d60208401620000d1565b90509250929050565b634e487b7160e01b600052604160045260246000fd5b600181811c908216806200015157607f821691505b6020821081036200017257634e487b7160e01b600052602260045260246000fd5b50919050565b601f821115620001c657600081815260208120601f850160051c81016020861015620001a15750805b601f850160051c820191505b81811015620001c257828155600101620001ad565b5050505b505050565b81516001600160401b03811115620001e757620001e762000126565b620001ff81620001f884546200013c565b8462000178565b602080601f8311600181146200023757600084156200021e5750858301515b600019600386901b1c1916600185901b178555620001c2565b600085815260208120601f198616915b82811015620002685788860151825594840194600190910190840162000247565b5085821015620002875787850151600019600388901b60f8161c191681555b5050505050600190811b01905550565b61141580620002a76000396000f3fe608060405234801561001057600080fd5b506004361061010b5760003560e01c80636d9a640a116100a25780639c8f9f23116100715780639c8f9f231461021b578063a9059cbb14610243578063ba9a7a5614610256578063d21220a71461025f578063dd62ed3e1461027257600080fd5b80636d9a640a146101c257806370a08231146101d757806387b21efc1461020057806395d89b411461021357600080fd5b806323b872dd116100de57806323b872dd1461018e578063313ce567146101a1578063443cb4bc146101b05780635a76f25e146101b957600080fd5b806306fdde0314610110578063095ea7b31461012e5780630dfe16811461015157806318160ddd1461017c575b600080fd5b6101186102ab565b6040516101259190611194565b60405180910390f35b61014161013c3660046111f9565b61033d565b6040519015158152602001610125565b600554610164906001600160a01b031681565b6040516001600160a01b039091168152602001610125565b6002545b604051908152602001610125565b61014161019c366004611223565b610357565b60405160128152602001610125565b61018060075481565b61018060085481565b6101d56101d036600461125f565b61037b565b005b6101806101e5366004611294565b6001600160a01b031660009081526020819052604090205490565b61018061020e36600461125f565b6107b9565b610118610a7d565b61022e6102293660046112af565b610a8c565b60408051928352602083019190915201610125565b6101416102513660046111f9565b610d9f565b6101806103e881565b600654610164906001600160a01b031681565b6101806102803660046112c8565b6001600160a01b03918216600090815260016020908152604080832093909416825291909152205490565b6060600380546102ba906112fb565b80601f01602080910402602001604051908101604052809291908181526020018280546102e6906112fb565b80156103335780601f1061030857610100808354040283529160200191610333565b820191906000526020600020905b81548152906001019060200180831161031657829003601f168201915b5050505050905090565b60003361034b818585610dad565b60019150505b92915050565b600033610365858285610dbf565b610370858585610e3e565b506001949350505050565b600083118061038a5750600082115b6103d35760405162461bcd60e51b8152602060048201526015602482015274125b9d985b1a59081bdd5d1c1d5d08185b5bdd5b9d605a1b60448201526064015b60405180910390fd5b600754831080156103e5575060085482105b61042a5760405162461bcd60e51b8152602060048201526016602482015275496e73756666696369656e74206c697175696469747960501b60448201526064016103ca565b60008360075461043a9190611345565b6005546040516370a0823160e01b81523060048201526001600160a01b03909116906370a0823190602401602060405180830381865afa158015610482573d6000803e3d6000fd5b505050506040513d601f19601f820116820180604052508101906104a69190611358565b6104b09190611345565b90506000836008546104c29190611345565b6006546040516370a0823160e01b81523060048201526001600160a01b03909116906370a0823190602401602060405180830381865afa15801561050a573d6000803e3d6000fd5b505050506040513d601f19601f8201168201806040525081019061052e9190611358565b6105389190611345565b9050600061271061054a601e85611371565b6105549190611388565b90506000612710610566601e85611371565b6105709190611388565b905061057c8285611345565b93506105888184611345565b9250600060085460075461059c9190611371565b905084886007546105ad9190611345565b6105b791906113aa565b60075560085484906105ca908990611345565b6105d491906113aa565b600881905560075482916105e791611371565b10156106215760405162461bcd60e51b8152602060048201526009602482015268496e76616c6964204b60b81b60448201526064016103ca565b87156106a05760055460405163a9059cbb60e01b81526001600160a01b038881166004830152602482018b90529091169063a9059cbb906044016020604051808303816000875af115801561067a573d6000803e3d6000fd5b505050506040513d601f19601f8201168201806040525081019061069e91906113bd565b505b861561071f5760065460405163a9059cbb60e01b81526001600160a01b038881166004830152602482018a90529091169063a9059cbb906044016020604051808303816000875af11580156106f9573d6000803e3d6000fd5b505050506040513d601f19601f8201168201806040525081019061071d91906113bd565b505b60408051868152602081018690529081018990526060810188905233907f49926bbebe8474393f434dfa4f78694c0923efa07d19f2284518bfabd06eb7379060800160405180910390a27fcf2aa50876cdfbb541206f89af0ee78d44a2abf8d328e37fa4917f982149848a6007546008546040516107a7929190918252602082015260400190565b60405180910390a15050505050505050565b6005546040516323b872dd60e01b8152336004820152306024820152604481018590526000916001600160a01b0316906323b872dd906064016020604051808303816000875af1158015610811573d6000803e3d6000fd5b505050506040513d601f19601f8201168201806040525081019061083591906113bd565b6108735760405162461bcd60e51b815260206004820152600f60248201526e151c985b9cd9995c8819985a5b1959608a1b60448201526064016103ca565b6006546040516323b872dd60e01b8152336004820152306024820152604481018590526001600160a01b03909116906323b872dd906064016020604051808303816000875af11580156108ca573d6000803e3d6000fd5b505050506040513d601f19601f820116820180604052508101906108ee91906113bd565b61092c5760405162461bcd60e51b815260206004820152600f60248201526e151c985b9cd9995c8819985a5b1959608a1b60448201526064016103ca565b6007546008548115801561093e575080155b15610976576103e86109586109538789611371565b610e9d565b6109629190611345565b925061097160006103e8610f0d565b6109bd565b6109ba8261098360025490565b61098d9089611371565b6109979190611388565b826109a160025490565b6109ab9089611371565b6109b59190611388565b610f47565b92505b60008311610a0d5760405162461bcd60e51b815260206004820152601d60248201527f496e73756666696369656e74206c6971756964697479206d696e74656400000060448201526064016103ca565b610a178484610f0d565b610a2186836113aa565b600755610a2e85826113aa565b60088190556007546040517fcf2aa50876cdfbb541206f89af0ee78d44a2abf8d328e37fa4917f982149848a92610a6c928252602082015260400190565b60405180910390a150509392505050565b6060600480546102ba906112fb565b60008060008311610ad35760405162461bcd60e51b8152602060048201526011602482015270496e76616c6964206c697175696469747960781b60448201526064016103ca565b6005546040516370a0823160e01b81523060048201526000916001600160a01b0316906370a0823190602401602060405180830381865afa158015610b1c573d6000803e3d6000fd5b505050506040513d601f19601f82011682018060405250810190610b409190611358565b6006546040516370a0823160e01b81523060048201529192506000916001600160a01b03909116906370a0823190602401602060405180830381865afa158015610b8e573d6000803e3d6000fd5b505050506040513d601f19601f82011682018060405250810190610bb29190611358565b9050610bbd60025490565b610bc78387611371565b610bd19190611388565b9350610bdc60025490565b610be68287611371565b610bf09190611388565b9250600084118015610c025750600083115b610c455760405162461bcd60e51b8152602060048201526014602482015273496e73756666696369656e7420616d6f756e747360601b60448201526064016103ca565b610c4f3386610f5f565b60055460405163a9059cbb60e01b8152336004820152602481018690526001600160a01b039091169063a9059cbb906044016020604051808303816000875af1158015610ca0573d6000803e3d6000fd5b505050506040513d601f19601f82011682018060405250810190610cc491906113bd565b5060065460405163a9059cbb60e01b8152336004820152602481018590526001600160a01b039091169063a9059cbb906044016020604051808303816000875af1158015610d16573d6000803e3d6000fd5b505050506040513d601f19601f82011682018060405250810190610d3a91906113bd565b50610d458483611345565b600755610d528382611345565b60088190556007546040517fcf2aa50876cdfbb541206f89af0ee78d44a2abf8d328e37fa4917f982149848a92610d90928252602082015260400190565b60405180910390a15050915091565b60003361034b818585610e3e565b610dba8383836001610f95565b505050565b6001600160a01b03838116600090815260016020908152604080832093861683529290522054600019811015610e385781811015610e2957604051637dc7a0d960e11b81526001600160a01b038416600482015260248101829052604481018390526064016103ca565b610e3884848484036000610f95565b50505050565b6001600160a01b038316610e6857604051634b637e8f60e11b8152600060048201526024016103ca565b6001600160a01b038216610e925760405163ec442f0560e01b8152600060048201526024016103ca565b610dba83838361106a565b60006003821115610efe5750806000610eb7600283611388565b610ec29060016113aa565b90505b81811015610ef857905080600281610edd8186611388565b610ee791906113aa565b610ef19190611388565b9050610ec5565b50919050565b8115610f08575060015b919050565b6001600160a01b038216610f375760405163ec442f0560e01b8152600060048201526024016103ca565b610f436000838361106a565b5050565b6000818310610f565781610f58565b825b9392505050565b6001600160a01b038216610f8957604051634b637e8f60e11b8152600060048201526024016103ca565b610f438260008361106a565b6001600160a01b038416610fbf5760405163e602df0560e01b8152600060048201526024016103ca565b6001600160a01b038316610fe957604051634a1406b160e11b8152600060048201526024016103ca565b6001600160a01b0380851660009081526001602090815260408083209387168352929052208290558015610e3857826001600160a01b0316846001600160a01b03167f8c5be1e5ebec7d5bd14f71427d1e84f3dd0314c0f7b2291e5b200ac8c7c3b9258460405161105c91815260200190565b60405180910390a350505050565b6001600160a01b03831661109557806002600082825461108a91906113aa565b909155506111079050565b6001600160a01b038316600090815260208190526040902054818110156110e85760405163391434e360e21b81526001600160a01b038516600482015260248101829052604481018390526064016103ca565b6001600160a01b03841660009081526020819052604090209082900390555b6001600160a01b03821661112357600280548290039055611142565b6001600160a01b03821660009081526020819052604090208054820190555b816001600160a01b0316836001600160a01b03167fddf252ad1be2c89b69c2b068fc378daa952ba7f163c4a11628f55a4df523b3ef8360405161118791815260200190565b60405180910390a3505050565b600060208083528351808285015260005b818110156111c1578581018301518582016040015282016111a5565b506000604082860101526040601f19601f8301168501019250505092915050565b80356001600160a01b0381168114610f0857600080fd5b6000806040838503121561120c57600080fd5b611215836111e2565b946020939093013593505050565b60008060006060848603121561123857600080fd5b611241846111e2565b925061124f602085016111e2565b9150604084013590509250925092565b60008060006060848603121561127457600080fd5b833592506020840135915061128b604085016111e2565b90509250925092565b6000602082840312156112a657600080fd5b610f58826111e2565b6000602082840312156112c157600080fd5b5035919050565b600080604083850312156112db57600080fd5b6112e4836111e2565b91506112f2602084016111e2565b90509250929050565b600181811c9082168061130f57607f821691505b602082108103610ef857634e487b7160e01b600052602260045260246000fd5b634e487b7160e01b600052601160045260246000fd5b818103818111156103515761035161132f565b60006020828403121561136a57600080fd5b5051919050565b80820281158282048414176103515761035161132f565b6000826113a557634e487b7160e01b600052601260045260246000fd5b500490565b808201808211156103515761035161132f565b6000602082840312156113cf57600080fd5b81518015158114610f5857600080fdfea2646970667358221220e3e477c57911de5bf92882fead75e98441ec882572be296dcff5713d97de0e7164736f6c63430008140033",
    "linkReferences": {},
    "deployedLinkReferences": {}
}