{
    "_format": "hh-sol-artifact-1",
    "contractName": "Router",
    "sourceName": "contracts/Router.sol",
    "abi": [
        {
            "inputs": [
                {
                    "internalType": "address",
                    "name": "_factory",
                    "type": "address"
                }
            ],
            "stateMutability": "nonpayable",
            "type": "constructor"
        },
        {
            "inputs": [
                {
                    "internalType": "address",
                    "name": "tokenA",
                    "type": "address"
                },
                {
                    "internalType": "address",
                    "name": "tokenB",
                    "type": "address"
                },
                {
                    "internalType": "uint256",
                    "name": "amountADesired",
                    "type": "uint256"
                },
                {
                    "internalType": "uint256",
                    "name": "amountBDesired",
                    "type": "uint256"
                },
                {
                    "internalType": "address",
                    "name": "to",
                    "type": "address"
                }
            ],
            "name": "addLiquidity",
            "outputs": [
                {
                    "internalType": "uint256",
                    "name": "amountA",
                    "type": "uint256"
                },
                {
                    "internalType": "uint256",
                    "name": "amountB",
                    "type": "uint256"
                },
                {
                    "internalType": "uint256",
                    "name": "liquidity",
                    "type": "uint256"
                }
            ],
            "stateMutability": "nonpayable",
            "type": "function"
        },
        {
            "inputs": [],
            "name": "factory",
            "outputs": [
                {
                    "internalType": "address",
                    "name": "",
                    "type": "address"
                }
            ],
            "stateMutability": "view",
            "type": "function"
        },
        {
            "inputs": [
                {
                    "internalType": "uint256",
                    "name": "amountIn",
                    "type": "uint256"
                },
                {
                    "internalType": "uint256",
                    "name": "amountOutMin",
                    "type": "uint256"
                },
                {
                    "internalType": "address[]",
                    "name": "path",
                    "type": "address[]"
                },
                {
                    "internalType": "address",
                    "name": "to",
                    "type": "address"
                }
            ],
            "name": "swapExactTokensForTokens",
            "outputs": [
                {
                    "internalType": "uint256[]",
                    "name": "amounts",
                    "type": "uint256[]"
                }
            ],
            "stateMutability": "nonpayable",
            "type": "function"
        }
    ],
    "bytecode": "0x608060405234801561001057600080fd5b50604051610a1b380380610a1b83398101604081905261002f91610054565b600080546001600160a01b0319166001600160a01b0392909216919091179055610084565b60006020828403121561006657600080fd5b81516001600160a01b038116811461007d57600080fd5b9392505050565b610988806100936000396000f3fe608060405234801561001057600080fd5b50600436106100415760003560e01c8063472b43f3146100465780634b2fc7bb1461006f578063c45a01551461009d575b600080fd5b61005961005436600461071c565b6100c8565b60405161006691906107ba565b60405180910390f35b61008261007d3660046107fe565b61047a565b60408051938452602084019290925290820152606001610066565b6000546100b0906001600160a01b031681565b6040516001600160a01b039091168152602001610066565b60608267ffffffffffffffff8111156100e3576100e361084f565b60405190808252806020026020018201604052801561010c578160200160208202803683370190505b509050858160008151811061012357610123610865565b60200260200101818152505060005b61013d600185610891565b81101561040457600080546001600160a01b031663e6a4390587878581811061016857610168610865565b905060200201602081019061017d91906108aa565b888861018a8760016108ce565b81811061019957610199610865565b90506020020160208101906101ae91906108aa565b6040516001600160e01b031960e085901b1681526001600160a01b03928316600482015291166024820152604401602060405180830381865afa1580156101f9573d6000803e3d6000fd5b505050506040513d601f19601f8201168201806040525081019061021d91906108e1565b90506001600160a01b0381166102705760405162461bcd60e51b815260206004820152601360248201527214185a5c88191bd95cc81b9bdd08195e1a5cdd606a1b60448201526064015b60405180910390fd5b600083838151811061028457610284610865565b602002602001015190508686848181106102a0576102a0610865565b90506020020160208101906102b591906108aa565b6001600160a01b03166323b872dd33848787815181106102d7576102d7610865565b60209081029190910101516040516001600160e01b031960e086901b1681526001600160a01b03938416600482015292909116602483015260448201526064016020604051808303816000875af1158015610336573d6000803e3d6000fd5b505050506040513d601f19601f8201168201806040525081019061035a91906108fe565b506040516336cd320560e11b815260006004820152602481018290526001600160a01b038681166044830152831690636d9a640a90606401600060405180830381600087803b1580156103ac57600080fd5b505af11580156103c0573d6000803e3d6000fd5b5050505080848460016103d391906108ce565b815181106103e3576103e3610865565b602002602001018181525050505080806103fc90610920565b915050610132565b508481600183516104159190610891565b8151811061042557610425610865565b602002602001015110156104715760405162461bcd60e51b8152602060048201526013602482015272125b9cdd59999a58da595b9d081bdd5d1c1d5d606a1b6044820152606401610267565b95945050505050565b6000805460405163e6a4390560e01b81526001600160a01b03888116600483015287811660248301528392839283929091169063e6a4390590604401602060405180830381865afa1580156104d3573d6000803e3d6000fd5b505050506040513d601f19601f820116820180604052508101906104f791906108e1565b90506001600160a01b038116610582576000546040516364e329cb60e11b81526001600160a01b038b811660048301528a811660248301529091169063c9c65396906044016020604051808303816000875af115801561055b573d6000803e3d6000fd5b505050506040513d601f19601f8201168201806040525081019061057f91906108e1565b90505b6040516323b872dd60e01b81523360048201526001600160a01b038281166024830152604482018990528895508794508a16906323b872dd906064016020604051808303816000875af11580156105dd573d6000803e3d6000fd5b505050506040513d601f19601f8201168201806040525081019061060191906108fe565b506040516323b872dd60e01b81523360048201526001600160a01b038281166024830152604482018590528916906323b872dd906064016020604051808303816000875af1158015610657573d6000803e3d6000fd5b505050506040513d601f19601f8201168201806040525081019061067b91906108fe565b506040516321ec87bf60e21b815260048101859052602481018490526001600160a01b0386811660448301528216906387b21efc906064016020604051808303816000875af11580156106d2573d6000803e3d6000fd5b505050506040513d601f19601f820116820180604052508101906106f69190610939565b915050955095509592505050565b6001600160a01b038116811461071957600080fd5b50565b60008060008060006080868803121561073457600080fd5b8535945060208601359350604086013567ffffffffffffffff8082111561075a57600080fd5b818801915088601f83011261076e57600080fd5b81358181111561077d57600080fd5b8960208260051b850101111561079257600080fd5b60208301955080945050505060608601356107ac81610704565b809150509295509295909350565b6020808252825182820181905260009190848201906040850190845b818110156107f2578351835292840192918401916001016107d6565b50909695505050505050565b600080600080600060a0868803121561081657600080fd5b853561082181610704565b9450602086013561083181610704565b9350604086013592506060860135915060808601356107ac81610704565b634e487b7160e01b600052604160045260246000fd5b634e487b7160e01b600052603260045260246000fd5b634e487b7160e01b600052601160045260246000fd5b818103818111156108a4576108a461087b565b92915050565b6000602082840312156108bc57600080fd5b81356108c781610704565b9392505050565b808201808211156108a4576108a461087b565b6000602082840312156108f357600080fd5b81516108c781610704565b60006020828403121561091057600080fd5b815180151581146108c757600080fd5b6000600182016109325761093261087b565b5060010190565b60006020828403121561094b57600080fd5b505191905056fea26469706673582212200a9013d25011b4ffd639e41d99d2d77b7aab91d80b9c9051ef9c16bef3c2c0b464736f6c63430008140033",
    "linkReferences": {},
    "deployedLinkReferences": {}
}