{
    "_format": "hh-sol-artifact-1",
    "contractName": "Staking",
    "sourceName": "contracts/Staking.sol",
    "abi": [
        {
            "inputs": [
                {
                    "internalType": "address",
                    "name": "_lpToken",
                    "type": "address"
                },
                {
                    "internalType": "address",
                    "name": "_rewardToken",
                    "type": "address"
                },
                {
                    "internalType": "uint256",
                    "name": "_rewardRate",
                    "type": "uint256"
                }
            ],
            "stateMutability": "nonpayable",
            "type": "constructor"
        },
        {
            "anonymous": false,
            "inputs": [
                {
                    "indexed": true,
                    "internalType": "address",
                    "name": "user",
                    "type": "address"
                },
                {
                    "indexed": false,
                    "internalType": "uint256",
                    "name": "reward",
                    "type": "uint256"
                }
            ],
            "name": "RewardPaid",
            "type": "event"
        },
        {
            "anonymous": false,
            "inputs": [
                {
                    "indexed": true,
                    "internalType": "address",
                    "name": "user",
                    "type": "address"
                },
                {
                    "indexed": false,
                    "internalType": "uint256",
                    "name": "amount",
                    "type": "uint256"
                }
            ],
            "name": "Staked",
            "type": "event"
        },
        {
            "anonymous": false,
            "inputs": [
                {
                    "indexed": true,
                    "internalType": "address",
                    "name": "user",
                    "type": "address"
                },
                {
                    "indexed": false,
                    "internalType": "uint256",
                    "name": "amount",
                    "type": "uint256"
                }
            ],
            "name": "Withdrawn",
            "type": "event"
        },
        {
            "inputs": [],
            "name": "claimReward",
            "outputs": [],
            "stateMutability": "nonpayable",
            "type": "function"
        },
        {
            "inputs": [
                {
                    "internalType": "address",
                    "name": "",
                    "type": "address"
                }
            ],
            "name": "lastUpdateTime",
            "outputs": [
                {
                    "internalType": "uint256",
                    "name": "",
                    "type": "uint256"
                }
            ],
            "stateMutability": "view",
            "type": "function"
        },
        {
            "inputs": [],
            "name": "lpToken",
            "outputs": [
                {
                    "internalType": "contract IERC20",
                    "name": "",
                    "type": "address"
                }
            ],
            "stateMutability": "view",
            "type": "function"
        },
        {
            "inputs": [],
            "name": "rewardRate",
            "outputs": [
                {
                    "internalType": "uint256",
                    "name": "",
                    "type": "uint256"
                }
            ],
            "stateMutability": "view",
            "type": "function"
        },
        {
            "inputs": [],
            "name": "rewardToken",
            "outputs": [
                {
                    "internalType": "contract IERC20",
                    "name": "",
                    "type": "address"
                }
            ],
            "stateMutability": "view",
            "type": "function"
        },
        {
            "inputs": [
                {
                    "internalType": "address",
                    "name": "",
                    "type": "address"
                }
            ],
            "name": "rewards",
            "outputs": [
                {
                    "internalType": "uint256",
                    "name": "",
                    "type": "uint256"
                }
            ],
            "stateMutability": "view",
            "type": "function"
        },
        {
            "inputs": [
                {
                    "internalType": "uint256",
                    "name": "amount",
                    "type": "uint256"
                }
            ],
            "name": "stake",
            "outputs": [],
            "stateMutability": "nonpayable",
            "type": "function"
        },
        {
            "inputs": [
                {
                    "internalType": "address",
                    "name": "",
                    "type": "address"
                }
            ],
            "name": "stakedBalance",
            "outputs": [
                {
                    "internalType": "uint256",
                    "name": "",
                    "type": "uint256"
                }
            ],
            "stateMutability": "view",
            "type": "function"
        },
        {
            "inputs": [],
            "name": "totalStaked",
            "outputs": [
                {
                    "internalType": "uint256",
                    "name": "",
                    "type": "uint256"
                }
            ],
            "stateMutability": "view",
            "type": "function"
        },
        {
            "inputs": [
                {
                    "internalType": "uint256",
                    "name": "amount",
                    "type": "uint256"
                }
            ],
            "name": "withdraw",
            "outputs": [],
            "stateMutability": "nonpayable",
            "type": "function"
        }
    ],
    "bytecode": "0x608060405234801561001057600080fd5b506040516107e53803806107e583398101604081905261002f91610083565b600080546001600160a01b039485166001600160a01b03199182161790915560018054939094169216919091179091556002556100bf565b80516001600160a01b038116811461007e57600080fd5b919050565b60008060006060848603121561009857600080fd5b6100a184610067565b92506100af60208501610067565b9150604084015190509250925092565b610717806100ce6000396000f3fe608060405234801561001057600080fd5b506004361061009e5760003560e01c80637b0a47ee116100665780637b0a47ee14610156578063817b1cd21461015f578063a694fc3a14610168578063b88a802f1461017b578063f7c618c11461018357600080fd5b80630700037d146100a35780632ce9aead146100d65780632e1a7d4d146100f65780635fcbd2851461010b5780636021726714610136575b600080fd5b6100c36100b13660046105fb565b60056020526000908152604090205481565b6040519081526020015b60405180910390f35b6100c36100e43660046105fb565b60066020526000908152604090205481565b61010961010436600461062b565b610196565b005b60005461011e906001600160a01b031681565b6040516001600160a01b0390911681526020016100cd565b6100c36101443660046105fb565b60046020526000908152604090205481565b6100c360025481565b6100c360035481565b61010961017636600461062b565b6102ed565b610109610429565b60015461011e906001600160a01b031681565b61019f3361053f565b6000811180156101be5750336000908152600460205260409020548111155b6102025760405162461bcd60e51b815260206004820152601060248201526f4d6f6e74616e7420696e76616c69646560801b60448201526064015b60405180910390fd5b3360009081526004602052604090205461021d90829061065a565b3360009081526004602052604090205560035461023b90829061065a565b60035560005460405163a9059cbb60e01b8152336004820152602481018390526001600160a01b039091169063a9059cbb906044016020604051808303816000875af115801561028f573d6000803e3d6000fd5b505050506040513d601f19601f820116820180604052508101906102b39190610673565b5060405181815233907f7084f5476618d8e60b11ef0d7d3f06914655adb8793e28ff7f018d4c76d505d5906020015b60405180910390a250565b6102f63361053f565b6000811161033f5760405162461bcd60e51b81526020600482015260166024820152750496d706f737369626c65206465207374616b657220360541b60448201526064016101f9565b3360009081526004602052604090205461035a908290610695565b33600090815260046020526040902055600354610378908290610695565b6003556000546040516323b872dd60e01b8152336004820152306024820152604481018390526001600160a01b03909116906323b872dd906064016020604051808303816000875af11580156103d2573d6000803e3d6000fd5b505050506040513d601f19601f820116820180604052508101906103f69190610673565b5060405181815233907f9e71bc8eea02a63969f509818f2dafb9254532904319f9dbda79b67bd34a5f3d906020016102e2565b6104323361053f565b33600090815260056020526040902054806104845760405162461bcd60e51b8152602060048201526012602482015271417563756e652072c3a9636f6d70656e736560701b60448201526064016101f9565b3360008181526005602052604080822091909155600154905163a9059cbb60e01b81526004810192909252602482018390526001600160a01b03169063a9059cbb906044016020604051808303816000875af11580156104e8573d6000803e3d6000fd5b505050506040513d601f19601f8201168201806040525081019061050c9190610673565b5060405181815233907fe2403640ba68fed3a2f88b7557551d1993f84b99bb10ff833f0cf8db0c5e0486906020016102e2565b6001600160a01b038116600090815260066020526040812054610562904261065a565b6002546001600160a01b038416600090815260046020526040902054919250670de0b6b3a7640000916105969084906106a8565b6105a091906106a8565b6105aa91906106bf565b6001600160a01b0383166000908152600560205260409020546105cd9190610695565b6001600160a01b03909216600090815260056020908152604080832094909455600690529190912042905550565b60006020828403121561060d57600080fd5b81356001600160a01b038116811461062457600080fd5b9392505050565b60006020828403121561063d57600080fd5b5035919050565b634e487b7160e01b600052601160045260246000fd5b8181038181111561066d5761066d610644565b92915050565b60006020828403121561068557600080fd5b8151801515811461062457600080fd5b8082018082111561066d5761066d610644565b808202811582820484141761066d5761066d610644565b6000826106dc57634e487b7160e01b600052601260045260246000fd5b50049056fea2646970667358221220fa0e27c28484794ca05c981b20fdf411acca1d7df4f94779c1be1c8d84fea34064736f6c63430008140033",
    "linkReferences": {},
    "deployedLinkReferences": {}
}